{"abi":[{"type":"constructor","inputs":[],"stateMutability":"nonpayable"},{"type":"function","name":"approve","inputs":[{"name":"to","type":"address","internalType":"address"},{"name":"tokenId","type":"uint256","internalType":"uint256"}],"outputs":[],"stateMutability":"nonpayable"},{"type":"function","name":"balanceOf","inputs":[{"name":"owner","type":"address","internalType":"address"}],"outputs":[{"name":"","type":"uint256","internalType":"uint256"}],"stateMutability":"view"},{"type":"function","name":"getApproved","inputs":[{"name":"tokenId","type":"uint256","internalType":"uint256"}],"outputs":[{"name":"","type":"address","internalType":"address"}],"stateMutability":"view"},{"type":"function","name":"isApprovedForAll","inputs":[{"name":"owner","type":"address","internalType":"address"},{"name":"operator","type":"address","internalType":"address"}],"outputs":[{"name":"","type":"bool","internalType":"bool"}],"stateMutability":"view"},{"type":"function","name":"isExpired","inputs":[{"name":"tokenId","type":"uint256","internalType":"uint256"}],"outputs":[{"name":"","type":"bool","internalType":"bool"}],"stateMutability":"view"},{"type":"function","name":"mint","inputs":[{"name":"_tokenURI","type":"string","internalType":"string"},{"name":"_duration","type":"uint256","internalType":"uint256"}],"outputs":[{"name":"","type":"uint256","internalType":"uint256"}],"stateMutability":"nonpayable"},{"type":"function","name":"name","inputs":[],"outputs":[{"name":"","type":"string","internalType":"string"}],"stateMutability":"view"},{"type":"function","name":"nextTokenId","inputs":[],"outputs":[{"name":"","type":"uint256","internalType":"uint256"}],"stateMutability":"view"},{"type":"function","name":"ownerOf","inputs":[{"name":"tokenId","type":"uint256","internalType":"uint256"}],"outputs":[{"name":"","type":"address","internalType":"address"}],"stateMutability":"view"},{"type":"function","name":"safeTransferFrom","inputs":[{"name":"from","type":"address","internalType":"address"},{"name":"to","type":"address","internalType":"address"},{"name":"tokenId","type":"uint256","internalType":"uint256"}],"outputs":[],"stateMutability":"nonpayable"},{"type":"function","name":"safeTransferFrom","inputs":[{"name":"from","type":"address","internalType":"address"},{"name":"to","type":"address","internalType":"address"},{"name":"tokenId","type":"uint256","internalType":"uint256"},{"name":"data","type":"bytes","internalType":"bytes"}],"outputs":[],"stateMutability":"nonpayable"},{"type":"function","name":"setApprovalForAll","inputs":[{"name":"operator","type":"address","internalType":"address"},{"name":"approved","type":"bool","internalType":"bool"}],"outputs":[],"stateMutability":"nonpayable"},{"type":"function","name":"supportsInterface","inputs":[{"name":"interfaceId","type":"bytes4","internalType":"bytes4"}],"outputs":[{"name":"","type":"bool","internalType":"bool"}],"stateMutability":"view"},{"type":"function","name":"symbol","inputs":[],"outputs":[{"name":"","type":"string","internalType":"string"}],"stateMutability":"view"},{"type":"function","name":"tokenData","inputs":[{"name":"","type":"uint256","internalType":"uint256"}],"outputs":[{"name":"creator","type":"address","internalType":"address"},{"name":"expiration","type":"uint256","internalType":"uint256"},{"name":"tokenURI","type":"string","internalType":"string"}],"stateMutability":"view"},{"type":"function","name":"tokenURI","inputs":[{"name":"tokenId","type":"uint256","internalType":"uint256"}],"outputs":[{"name":"","type":"string","internalType":"string"}],"stateMutability":"view"},{"type":"function","name":"transferFrom","inputs":[{"name":"from","type":"address","internalType":"address"},{"name":"to","type":"address","internalType":"address"},{"name":"tokenId","type":"uint256","internalType":"uint256"}],"outputs":[],"stateMutability":"nonpayable"},{"type":"event","name":"Approval","inputs":[{"name":"owner","type":"address","indexed":true,"internalType":"address"},{"name":"approved","type":"address","indexed":true,"internalType":"address"},{"name":"tokenId","type":"uint256","indexed":true,"internalType":"uint256"}],"anonymous":false},{"type":"event","name":"ApprovalForAll","inputs":[{"name":"owner","type":"address","indexed":true,"internalType":"address"},{"name":"operator","type":"address","indexed":true,"internalType":"address"},{"name":"approved","type":"bool","indexed":false,"internalType":"bool"}],"anonymous":false},{"type":"event","name":"Transfer","inputs":[{"name":"from","type":"address","indexed":true,"internalType":"address"},{"name":"to","type":"address","indexed":true,"internalType":"address"},{"name":"tokenId","type":"uint256","indexed":true,"internalType":"uint256"}],"anonymous":false},{"type":"error","name":"ERC721IncorrectOwner","inputs":[{"name":"sender","type":"address","internalType":"address"},{"name":"tokenId","type":"uint256","internalType":"uint256"},{"name":"owner","type":"address","internalType":"address"}]},{"type":"error","name":"ERC721InsufficientApproval","inputs":[{"name":"operator","type":"address","internalType":"address"},{"name":"tokenId","type":"uint256","internalType":"uint256"}]},{"type":"error","name":"ERC721InvalidApprover","inputs":[{"name":"approver","type":"address","internalType":"address"}]},{"type":"error","name":"ERC721InvalidOperator","inputs":[{"name":"operator","type":"address","internalType":"address"}]},{"type":"error","name":"ERC721InvalidOwner","inputs":[{"name":"owner","type":"address","internalType":"address"}]},{"type":"error","name":"ERC721InvalidReceiver","inputs":[{"name":"receiver","type":"address","internalType":"address"}]},{"type":"error","name":"ERC721InvalidSender","inputs":[{"name":"sender","type":"address","internalType":"address"}]},{"type":"error","name":"ERC721NonexistentToken","inputs":[{"name":"tokenId","type":"uint256","internalType":"uint256"}]}],"bytecode":{"object":"0x60806040526001600755348015610014575f5ffd5b506040518060400160405280600981526020017f53747265616d4e465400000000000000000000000000000000000000000000008152506040518060400160405280600481526020017f534e465400000000000000000000000000000000000000000000000000000000815250815f908161008f91906102e4565b50806001908161009f91906102e4565b5050506103b3565b5f81519050919050565b7f4e487b71000000000000000000000000000000000000000000000000000000005f52604160045260245ffd5b7f4e487b71000000000000000000000000000000000000000000000000000000005f52602260045260245ffd5b5f600282049050600182168061012257607f821691505b602082108103610135576101346100de565b5b50919050565b5f819050815f5260205f209050919050565b5f6020601f8301049050919050565b5f82821b905092915050565b5f600883026101977fffffffffffffffffffffffffffffffffffffffffffffffffffffffffffffffff8261015c565b6101a1868361015c565b95508019841693508086168417925050509392505050565b5f819050919050565b5f819050919050565b5f6101e56101e06101db846101b9565b6101c2565b6101b9565b9050919050565b5f819050919050565b6101fe836101cb565b61021261020a826101ec565b848454610168565b825550505050565b5f5f905090565b61022961021a565b6102348184846101f5565b505050565b5b818110156102575761024c5f82610221565b60018101905061023a565b5050565b601f82111561029c5761026d8161013b565b6102768461014d565b81016020851015610285578190505b6102996102918561014d565b830182610239565b50505b505050565b5f82821c905092915050565b5f6102bc5f19846008026102a1565b1980831691505092915050565b5f6102d483836102ad565b9150826002028217905092915050565b6102ed826100a7565b67ffffffffffffffff811115610306576103056100b1565b5b610310825461010b565b61031b82828561025b565b5f60209050601f83116001811461034c575f841561033a578287015190505b61034485826102c9565b8655506103ab565b601f19841661035a8661013b565b5f5b828110156103815784890151825560018201915060208501945060208101905061035c565b8683101561039e578489015161039a601f8916826102ad565b8355505b6001600288020188555050505b505050505050565b612425806103c05f395ff3fe608060405234801561000f575f5ffd5b5060043610610109575f3560e01c806370a08231116100a0578063b4b5b48f1161006f578063b4b5b48f146102c7578063b88d4fde146102f9578063c87b56dd14610315578063d9548e5314610345578063e985e9c51461037557610109565b806370a082311461023f57806375794a3c1461026f57806395d89b411461028d578063a22cb465146102ab57610109565b8063095ea7b3116100dc578063095ea7b3146101bb57806323b872dd146101d757806342842e0e146101f35780636352211e1461020f57610109565b806301ffc9a71461010d578063056b01ce1461013d57806306fdde031461016d578063081812fc1461018b575b5f5ffd5b610127600480360381019061012291906117d8565b6103a5565b604051610134919061181d565b60405180910390f35b610157600480360381019061015291906119a5565b610486565b6040516101649190611a0e565b60405180910390f35b6101756105ed565b6040516101829190611a87565b60405180910390f35b6101a560048036038101906101a09190611aa7565b61067c565b6040516101b29190611b11565b60405180910390f35b6101d560048036038101906101d09190611b54565b610697565b005b6101f160048036038101906101ec9190611b92565b6106ad565b005b61020d60048036038101906102089190611b92565b6107ac565b005b61022960048036038101906102249190611aa7565b6107cb565b6040516102369190611b11565b60405180910390f35b61025960048036038101906102549190611be2565b6107dc565b6040516102669190611a0e565b60405180910390f35b610277610892565b6040516102849190611a0e565b60405180910390f35b610295610898565b6040516102a29190611a87565b60405180910390f35b6102c560048036038101906102c09190611c37565b610928565b005b6102e160048036038101906102dc9190611aa7565b61093e565b6040516102f093929190611c75565b60405180910390f35b610313600480360381019061030e9190611d4f565b610a09565b005b61032f600480360381019061032a9190611aa7565b610a2e565b60405161033c9190611a87565b60405180910390f35b61035f600480360381019061035a9190611aa7565b610adc565b60405161036c919061181d565b60405180910390f35b61038f600480360381019061038a9190611dcf565b610afb565b60405161039c919061181d565b60405180910390f35b5f7f80ac58cd000000000000000000000000000000000000000000000000000000007bffffffffffffffffffffffffffffffffffffffffffffffffffffffff1916827bffffffffffffffffffffffffffffffffffffffffffffffffffffffff1916148061046f57507f5b5e139f000000000000000000000000000000000000000000000000000000007bffffffffffffffffffffffffffffffffffffffffffffffffffffffff1916827bffffffffffffffffffffffffffffffffffffffffffffffffffffffff1916145b8061047f575061047e82610b89565b5b9050919050565b5f5f82116104c9576040517f08c379a00000000000000000000000000000000000000000000000000000000081526004016104c090611e57565b60405180910390fd5b5f83511161050c576040517f08c379a000000000000000000000000000000000000000000000000000000000815260040161050390611ebf565b60405180910390fd5b5f60075f81548092919061051f90611f0a565b91905055905060405180606001604052803373ffffffffffffffffffffffffffffffffffffffff16815260200184426105589190611f51565b81526020018581525060065f8381526020019081526020015f205f820151815f015f6101000a81548173ffffffffffffffffffffffffffffffffffffffff021916908373ffffffffffffffffffffffffffffffffffffffff1602179055506020820151816001015560408201518160020190816105d59190612181565b509050506105e33382610bf2565b8091505092915050565b60605f80546105fb90611fb1565b80601f016020809104026020016040519081016040528092919081815260200182805461062790611fb1565b80156106725780601f1061064957610100808354040283529160200191610672565b820191905f5260205f20905b81548152906001019060200180831161065557829003601f168201915b5050505050905090565b5f61068682610c0f565b5061069082610c95565b9050919050565b6106a982826106a4610cce565b610cd5565b5050565b5f73ffffffffffffffffffffffffffffffffffffffff168273ffffffffffffffffffffffffffffffffffffffff160361071d575f6040517f64a0ae920000000000000000000000000000000000000000000000000000000081526004016107149190611b11565b60405180910390fd5b5f610730838361072b610cce565b610ce7565b90508373ffffffffffffffffffffffffffffffffffffffff168173ffffffffffffffffffffffffffffffffffffffff16146107a6578382826040517f64283d7b00000000000000000000000000000000000000000000000000000000815260040161079d93929190612250565b60405180910390fd5b50505050565b6107c683838360405180602001604052805f815250610a09565b505050565b5f6107d582610c0f565b9050919050565b5f5f73ffffffffffffffffffffffffffffffffffffffff168273ffffffffffffffffffffffffffffffffffffffff160361084d575f6040517f89c62b640000000000000000000000000000000000000000000000000000000081526004016108449190611b11565b60405180910390fd5b60035f8373ffffffffffffffffffffffffffffffffffffffff1673ffffffffffffffffffffffffffffffffffffffff1681526020019081526020015f20549050919050565b60075481565b6060600180546108a790611fb1565b80601f01602080910402602001604051908101604052809291908181526020018280546108d390611fb1565b801561091e5780601f106108f55761010080835404028352916020019161091e565b820191905f5260205f20905b81548152906001019060200180831161090157829003601f168201915b5050505050905090565b61093a610933610cce565b8383610dc1565b5050565b6006602052805f5260405f205f91509050805f015f9054906101000a900473ffffffffffffffffffffffffffffffffffffffff169080600101549080600201805461098890611fb1565b80601f01602080910402602001604051908101604052809291908181526020018280546109b490611fb1565b80156109ff5780601f106109d6576101008083540402835291602001916109ff565b820191905f5260205f20905b8154815290600101906020018083116109e257829003601f168201915b5050505050905083565b610a148484846106ad565b610a28610a1f610cce565b85858585610f2a565b50505050565b6060610a3982610c0f565b5060065f8381526020019081526020015f206002018054610a5990611fb1565b80601f0160208091040260200160405190810160405280929190818152602001828054610a8590611fb1565b8015610ad05780601f10610aa757610100808354040283529160200191610ad0565b820191905f5260205f20905b815481529060010190602001808311610ab357829003601f168201915b50505050509050919050565b5f60065f8381526020019081526020015f206001015442119050919050565b5f60055f8473ffffffffffffffffffffffffffffffffffffffff1673ffffffffffffffffffffffffffffffffffffffff1681526020019081526020015f205f8373ffffffffffffffffffffffffffffffffffffffff1673ffffffffffffffffffffffffffffffffffffffff1681526020019081526020015f205f9054906101000a900460ff16905092915050565b5f7f01ffc9a7000000000000000000000000000000000000000000000000000000007bffffffffffffffffffffffffffffffffffffffffffffffffffffffff1916827bffffffffffffffffffffffffffffffffffffffffffffffffffffffff1916149050919050565b610c0b828260405180602001604052805f8152506110d6565b5050565b5f5f610c1a836110f9565b90505f73ffffffffffffffffffffffffffffffffffffffff168173ffffffffffffffffffffffffffffffffffffffff1603610c8c57826040517f7e273289000000000000000000000000000000000000000000000000000000008152600401610c839190611a0e565b60405180910390fd5b80915050919050565b5f60045f8381526020019081526020015f205f9054906101000a900473ffffffffffffffffffffffffffffffffffffffff169050919050565b5f33905090565b610ce28383836001611132565b505050565b5f5f73ffffffffffffffffffffffffffffffffffffffff168473ffffffffffffffffffffffffffffffffffffffff1614158015610d5057505f73ffffffffffffffffffffffffffffffffffffffff168273ffffffffffffffffffffffffffffffffffffffff1614155b15610dad5760065f8481526020019081526020015f2060010154421115610dac576040517f08c379a0000000000000000000000000000000000000000000000000000000008152600401610da3906122cf565b60405180910390fd5b5b610db88484846112f1565b90509392505050565b5f73ffffffffffffffffffffffffffffffffffffffff168273ffffffffffffffffffffffffffffffffffffffff1603610e3157816040517f5b08ba18000000000000000000000000000000000000000000000000000000008152600401610e289190611b11565b60405180910390fd5b8060055f8573ffffffffffffffffffffffffffffffffffffffff1673ffffffffffffffffffffffffffffffffffffffff1681526020019081526020015f205f8473ffffffffffffffffffffffffffffffffffffffff1673ffffffffffffffffffffffffffffffffffffffff1681526020019081526020015f205f6101000a81548160ff0219169083151502179055508173ffffffffffffffffffffffffffffffffffffffff168373ffffffffffffffffffffffffffffffffffffffff167f17307eab39ab6107e8899845ad3d59bd9653f200f220920489ca2b5937696c3183604051610f1d919061181d565b60405180910390a3505050565b5f8373ffffffffffffffffffffffffffffffffffffffff163b11156110cf578273ffffffffffffffffffffffffffffffffffffffff1663150b7a02868685856040518563ffffffff1660e01b8152600401610f88949392919061233f565b6020604051808303815f875af1925050508015610fc357506040513d601f19601f82011682018060405250810190610fc0919061239d565b60015b611044573d805f8114610ff1576040519150601f19603f3d011682016040523d82523d5f602084013e610ff6565b606091505b505f81510361103c57836040517f64a0ae920000000000000000000000000000000000000000000000000000000081526004016110339190611b11565b60405180910390fd5b805160208201fd5b63150b7a0260e01b7bffffffffffffffffffffffffffffffffffffffffffffffffffffffff1916817bffffffffffffffffffffffffffffffffffffffffffffffffffffffff1916146110cd57836040517f64a0ae920000000000000000000000000000000000000000000000000000000081526004016110c49190611b11565b60405180910390fd5b505b5050505050565b6110e083836114fc565b6110f46110eb610cce565b5f858585610f2a565b505050565b5f60025f8381526020019081526020015f205f9054906101000a900473ffffffffffffffffffffffffffffffffffffffff169050919050565b808061116a57505f73ffffffffffffffffffffffffffffffffffffffff168273ffffffffffffffffffffffffffffffffffffffff1614155b1561129c575f61117984610c0f565b90505f73ffffffffffffffffffffffffffffffffffffffff168373ffffffffffffffffffffffffffffffffffffffff16141580156111e357508273ffffffffffffffffffffffffffffffffffffffff168173ffffffffffffffffffffffffffffffffffffffff1614155b80156111f657506111f48184610afb565b155b1561123857826040517fa9fbf51f00000000000000000000000000000000000000000000000000000000815260040161122f9190611b11565b60405180910390fd5b811561129a57838573ffffffffffffffffffffffffffffffffffffffff168273ffffffffffffffffffffffffffffffffffffffff167f8c5be1e5ebec7d5bd14f71427d1e84f3dd0314c0f7b2291e5b200ac8c7c3b92560405160405180910390a45b505b8360045f8581526020019081526020015f205f6101000a81548173ffffffffffffffffffffffffffffffffffffffff021916908373ffffffffffffffffffffffffffffffffffffffff16021790555050505050565b5f5f6112fc846110f9565b90505f73ffffffffffffffffffffffffffffffffffffffff168373ffffffffffffffffffffffffffffffffffffffff161461133d5761133c8184866115ef565b5b5f73ffffffffffffffffffffffffffffffffffffffff168173ffffffffffffffffffffffffffffffffffffffff16146113c85761137c5f855f5f611132565b600160035f8373ffffffffffffffffffffffffffffffffffffffff1673ffffffffffffffffffffffffffffffffffffffff1681526020019081526020015f205f82825403925050819055505b5f73ffffffffffffffffffffffffffffffffffffffff168573ffffffffffffffffffffffffffffffffffffffff161461144757600160035f8773ffffffffffffffffffffffffffffffffffffffff1673ffffffffffffffffffffffffffffffffffffffff1681526020019081526020015f205f82825401925050819055505b8460025f8681526020019081526020015f205f6101000a81548173ffffffffffffffffffffffffffffffffffffffff021916908373ffffffffffffffffffffffffffffffffffffffff160217905550838573ffffffffffffffffffffffffffffffffffffffff168273ffffffffffffffffffffffffffffffffffffffff167fddf252ad1be2c89b69c2b068fc378daa952ba7f163c4a11628f55a4df523b3ef60405160405180910390a4809150509392505050565b5f73ffffffffffffffffffffffffffffffffffffffff168273ffffffffffffffffffffffffffffffffffffffff160361156c575f6040517f64a0ae920000000000000000000000000000000000000000000000000000000081526004016115639190611b11565b60405180910390fd5b5f61157883835f610ce7565b90505f73ffffffffffffffffffffffffffffffffffffffff168173ffffffffffffffffffffffffffffffffffffffff16146115ea575f6040517f73c6ac6e0000000000000000000000000000000000000000000000000000000081526004016115e19190611b11565b60405180910390fd5b505050565b6115fa8383836116b2565b6116ad575f73ffffffffffffffffffffffffffffffffffffffff168373ffffffffffffffffffffffffffffffffffffffff160361166e57806040517f7e2732890000000000000000000000000000000000000000000000000000000081526004016116659190611a0e565b60405180910390fd5b81816040517f177e802f0000000000000000000000000000000000000000000000000000000081526004016116a49291906123c8565b60405180910390fd5b505050565b5f5f73ffffffffffffffffffffffffffffffffffffffff168373ffffffffffffffffffffffffffffffffffffffff161415801561176957508273ffffffffffffffffffffffffffffffffffffffff168473ffffffffffffffffffffffffffffffffffffffff16148061172a57506117298484610afb565b5b8061176857508273ffffffffffffffffffffffffffffffffffffffff1661175083610c95565b73ffffffffffffffffffffffffffffffffffffffff16145b5b90509392505050565b5f604051905090565b5f5ffd5b5f5ffd5b5f7fffffffff0000000000000000000000000000000000000000000000000000000082169050919050565b6117b781611783565b81146117c1575f5ffd5b50565b5f813590506117d2816117ae565b92915050565b5f602082840312156117ed576117ec61177b565b5b5f6117fa848285016117c4565b91505092915050565b5f8115159050919050565b61181781611803565b82525050565b5f6020820190506118305f83018461180e565b92915050565b5f5ffd5b5f5ffd5b5f601f19601f8301169050919050565b7f4e487b71000000000000000000000000000000000000000000000000000000005f52604160045260245ffd5b6118848261183e565b810181811067ffffffffffffffff821117156118a3576118a261184e565b5b80604052505050565b5f6118b5611772565b90506118c1828261187b565b919050565b5f67ffffffffffffffff8211156118e0576118df61184e565b5b6118e98261183e565b9050602081019050919050565b828183375f83830152505050565b5f611916611911846118c6565b6118ac565b9050828152602081018484840111156119325761193161183a565b5b61193d8482856118f6565b509392505050565b5f82601f83011261195957611958611836565b5b8135611969848260208601611904565b91505092915050565b5f819050919050565b61198481611972565b811461198e575f5ffd5b50565b5f8135905061199f8161197b565b92915050565b5f5f604083850312156119bb576119ba61177b565b5b5f83013567ffffffffffffffff8111156119d8576119d761177f565b5b6119e485828601611945565b92505060206119f585828601611991565b9150509250929050565b611a0881611972565b82525050565b5f602082019050611a215f8301846119ff565b92915050565b5f81519050919050565b5f82825260208201905092915050565b8281835e5f83830152505050565b5f611a5982611a27565b611a638185611a31565b9350611a73818560208601611a41565b611a7c8161183e565b840191505092915050565b5f6020820190508181035f830152611a9f8184611a4f565b905092915050565b5f60208284031215611abc57611abb61177b565b5b5f611ac984828501611991565b91505092915050565b5f73ffffffffffffffffffffffffffffffffffffffff82169050919050565b5f611afb82611ad2565b9050919050565b611b0b81611af1565b82525050565b5f602082019050611b245f830184611b02565b92915050565b611b3381611af1565b8114611b3d575f5ffd5b50565b5f81359050611b4e81611b2a565b92915050565b5f5f60408385031215611b6a57611b6961177b565b5b5f611b7785828601611b40565b9250506020611b8885828601611991565b9150509250929050565b5f5f5f60608486031215611ba957611ba861177b565b5b5f611bb686828701611b40565b9350506020611bc786828701611b40565b9250506040611bd886828701611991565b9150509250925092565b5f60208284031215611bf757611bf661177b565b5b5f611c0484828501611b40565b91505092915050565b611c1681611803565b8114611c20575f5ffd5b50565b5f81359050611c3181611c0d565b92915050565b5f5f60408385031215611c4d57611c4c61177b565b5b5f611c5a85828601611b40565b9250506020611c6b85828601611c23565b9150509250929050565b5f606082019050611c885f830186611b02565b611c9560208301856119ff565b8181036040830152611ca78184611a4f565b9050949350505050565b5f67ffffffffffffffff821115611ccb57611cca61184e565b5b611cd48261183e565b9050602081019050919050565b5f611cf3611cee84611cb1565b6118ac565b905082815260208101848484011115611d0f57611d0e61183a565b5b611d1a8482856118f6565b509392505050565b5f82601f830112611d3657611d35611836565b5b8135611d46848260208601611ce1565b91505092915050565b5f5f5f5f60808587031215611d6757611d6661177b565b5b5f611d7487828801611b40565b9450506020611d8587828801611b40565b9350506040611d9687828801611991565b925050606085013567ffffffffffffffff811115611db757611db661177f565b5b611dc387828801611d22565b91505092959194509250565b5f5f60408385031215611de557611de461177b565b5b5f611df285828601611b40565b9250506020611e0385828601611b40565b9150509250929050565b7f4475726174696f6e206d75737420626520706f736974697665000000000000005f82015250565b5f611e41601983611a31565b9150611e4c82611e0d565b602082019050919050565b5f6020820190508181035f830152611e6e81611e35565b9050919050565b7f546f6b656e205552492063616e6e6f7420626520656d707479000000000000005f82015250565b5f611ea9601983611a31565b9150611eb482611e75565b602082019050919050565b5f6020820190508181035f830152611ed681611e9d565b9050919050565b7f4e487b71000000000000000000000000000000000000000000000000000000005f52601160045260245ffd5b5f611f1482611972565b91507fffffffffffffffffffffffffffffffffffffffffffffffffffffffffffffffff8203611f4657611f45611edd565b5b600182019050919050565b5f611f5b82611972565b9150611f6683611972565b9250828201905080821115611f7e57611f7d611edd565b5b92915050565b7f4e487b71000000000000000000000000000000000000000000000000000000005f52602260045260245ffd5b5f6002820490506001821680611fc857607f821691505b602082108103611fdb57611fda611f84565b5b50919050565b5f819050815f5260205f209050919050565b5f6020601f8301049050919050565b5f82821b905092915050565b5f6008830261203d7fffffffffffffffffffffffffffffffffffffffffffffffffffffffffffffffff82612002565b6120478683612002565b95508019841693508086168417925050509392505050565b5f819050919050565b5f61208261207d61207884611972565b61205f565b611972565b9050919050565b5f819050919050565b61209b83612068565b6120af6120a782612089565b84845461200e565b825550505050565b5f5f905090565b6120c66120b7565b6120d1818484612092565b505050565b5b818110156120f4576120e95f826120be565b6001810190506120d7565b5050565b601f8211156121395761210a81611fe1565b61211384611ff3565b81016020851015612122578190505b61213661212e85611ff3565b8301826120d6565b50505b505050565b5f82821c905092915050565b5f6121595f198460080261213e565b1980831691505092915050565b5f612171838361214a565b9150826002028217905092915050565b61218a82611a27565b67ffffffffffffffff8111156121a3576121a261184e565b5b6121ad8254611fb1565b6121b88282856120f8565b5f60209050601f8311600181146121e9575f84156121d7578287015190505b6121e18582612166565b865550612248565b601f1984166121f786611fe1565b5f5b8281101561221e578489015182556001820191506020850194506020810190506121f9565b8683101561223b5784890151612237601f89168261214a565b8355505b6001600288020188555050505b505050505050565b5f6060820190506122635f830186611b02565b61227060208301856119ff565b61227d6040830184611b02565b949350505050565b7f4e465420657870697265642c2063616e6e6f74207472616e73666572000000005f82015250565b5f6122b9601c83611a31565b91506122c482612285565b602082019050919050565b5f6020820190508181035f8301526122e6816122ad565b9050919050565b5f81519050919050565b5f82825260208201905092915050565b5f612311826122ed565b61231b81856122f7565b935061232b818560208601611a41565b6123348161183e565b840191505092915050565b5f6080820190506123525f830187611b02565b61235f6020830186611b02565b61236c60408301856119ff565b818103606083015261237e8184612307565b905095945050505050565b5f81519050612397816117ae565b92915050565b5f602082840312156123b2576123b161177b565b5b5f6123bf84828501612389565b91505092915050565b5f6040820190506123db5f830185611b02565b6123e860208301846119ff565b939250505056fea2646970667358221220f14c90e8e303af5b7e02b1a66a100ba1307211c75d99bf271b7350bf2c37088564736f6c634300081e0033","linkReferences":{}},"methodIdentifiers":{"approve(address,uint256)":"095ea7b3","balanceOf(address)":"70a08231","getApproved(uint256)":"081812fc","isApprovedForAll(address,address)":"e985e9c5","isExpired(uint256)":"d9548e53","mint(string,uint256)":"056b01ce","name()":"06fdde03","nextTokenId()":"75794a3c","ownerOf(uint256)":"6352211e","safeTransferFrom(address,address,uint256)":"42842e0e","safeTransferFrom(address,address,uint256,bytes)":"b88d4fde","setApprovalForAll(address,bool)":"a22cb465","supportsInterface(bytes4)":"01ffc9a7","symbol()":"95d89b41","tokenData(uint256)":"b4b5b48f","tokenURI(uint256)":"c87b56dd","transferFrom(address,address,uint256)":"23b872dd"},"id":37}