{"abi":[{"type":"constructor","inputs":[{"name":"_nftAddress","type":"address","internalType":"address"}],"stateMutability":"nonpayable"},{"type":"function","name":"buy","inputs":[{"name":"tokenId","type":"uint256","internalType":"uint256"}],"outputs":[],"stateMutability":"payable"},{"type":"function","name":"cancelListing","inputs":[{"name":"tokenId","type":"uint256","internalType":"uint256"}],"outputs":[],"stateMutability":"nonpayable"},{"type":"function","name":"list","inputs":[{"name":"tokenId","type":"uint256","internalType":"uint256"},{"name":"price","type":"uint256","internalType":"uint256"}],"outputs":[],"stateMutability":"nonpayable"},{"type":"function","name":"listings","inputs":[{"name":"","type":"uint256","internalType":"uint256"}],"outputs":[{"name":"price","type":"uint256","internalType":"uint256"},{"name":"seller","type":"address","internalType":"address"}],"stateMutability":"view"},{"type":"function","name":"nft","inputs":[],"outputs":[{"name":"","type":"address","internalType":"contract StreamNFT"}],"stateMutability":"view"},{"type":"event","name":"Listed","inputs":[{"name":"tokenId","type":"uint256","indexed":true,"internalType":"uint256"},{"name":"seller","type":"address","indexed":false,"internalType":"address"},{"name":"price","type":"uint256","indexed":false,"internalType":"uint256"}],"anonymous":false},{"type":"event","name":"ListingCancelled","inputs":[{"name":"tokenId","type":"uint256","indexed":true,"internalType":"uint256"}],"anonymous":false},{"type":"event","name":"Sold","inputs":[{"name":"tokenId","type":"uint256","indexed":true,"internalType":"uint256"},{"name":"buyer","type":"address","indexed":false,"internalType":"address"},{"name":"price","type":"uint256","indexed":false,"internalType":"uint256"}],"anonymous":false}],"bytecode":{"object":"0x608060405234801561000f575f5ffd5b506040516110d53803806110d5833981810160405281019061003191906100d4565b805f5f6101000a81548173ffffffffffffffffffffffffffffffffffffffff021916908373ffffffffffffffffffffffffffffffffffffffff160217905550506100ff565b5f5ffd5b5f73ffffffffffffffffffffffffffffffffffffffff82169050919050565b5f6100a38261007a565b9050919050565b6100b381610099565b81146100bd575f5ffd5b50565b5f815190506100ce816100aa565b92915050565b5f602082840312156100e9576100e8610076565b5b5f6100f6848285016100c0565b91505092915050565b610fc98061010c5f395ff3fe608060405260043610610049575f3560e01c8063305a67a81461004d57806347ccca021461007557806350fd73671461009f578063d96a094a146100c7578063de74e57b146100e3575b5f5ffd5b348015610058575f5ffd5b50610073600480360381019061006e9190610a08565b610120565b005b348015610080575f5ffd5b50610089610280565b6040516100969190610aad565b60405180910390f35b3480156100aa575f5ffd5b506100c560048036038101906100c09190610ac6565b6102a4565b005b6100e160048036038101906100dc9190610a08565b61065c565b005b3480156100ee575f5ffd5b5061010960048036038101906101049190610a08565b610992565b604051610117929190610b33565b60405180910390f35b5f60015f8381526020019081526020015f206040518060400160405290815f8201548152602001600182015f9054906101000a900473ffffffffffffffffffffffffffffffffffffffff1673ffffffffffffffffffffffffffffffffffffffff1673ffffffffffffffffffffffffffffffffffffffff168152505090503373ffffffffffffffffffffffffffffffffffffffff16816020015173ffffffffffffffffffffffffffffffffffffffff161461020f576040517f08c379a000000000000000000000000000000000000000000000000000000000815260040161020690610bb4565b60405180910390fd5b60015f8381526020019081526020015f205f5f82015f9055600182015f6101000a81549073ffffffffffffffffffffffffffffffffffffffff02191690555050817f411aee90354c51b1b04cd563fcab2617142a9d50da19232d888547c8a1b7fd8a60405160405180910390a25050565b5f5f9054906101000a900473ffffffffffffffffffffffffffffffffffffffff1681565b3373ffffffffffffffffffffffffffffffffffffffff165f5f9054906101000a900473ffffffffffffffffffffffffffffffffffffffff1673ffffffffffffffffffffffffffffffffffffffff16636352211e846040518263ffffffff1660e01b81526004016103149190610bd2565b602060405180830381865afa15801561032f573d5f5f3e3d5ffd5b505050506040513d601f19601f820116820180604052508101906103539190610c15565b73ffffffffffffffffffffffffffffffffffffffff16146103a9576040517f08c379a00000000000000000000000000000000000000000000000000000000081526004016103a090610c8a565b60405180910390fd5b5f81116103eb576040517f08c379a00000000000000000000000000000000000000000000000000000000081526004016103e290610cf2565b60405180910390fd5b3073ffffffffffffffffffffffffffffffffffffffff165f5f9054906101000a900473ffffffffffffffffffffffffffffffffffffffff1673ffffffffffffffffffffffffffffffffffffffff1663081812fc846040518263ffffffff1660e01b815260040161045b9190610bd2565b602060405180830381865afa158015610476573d5f5f3e3d5ffd5b505050506040513d601f19601f8201168201806040525081019061049a9190610c15565b73ffffffffffffffffffffffffffffffffffffffff16148061055257505f5f9054906101000a900473ffffffffffffffffffffffffffffffffffffffff1673ffffffffffffffffffffffffffffffffffffffff1663e985e9c533306040518363ffffffff1660e01b8152600401610512929190610d10565b602060405180830381865afa15801561052d573d5f5f3e3d5ffd5b505050506040513d601f19601f820116820180604052508101906105519190610d6c565b5b610591576040517f08c379a000000000000000000000000000000000000000000000000000000000815260040161058890610de1565b60405180910390fd5b60405180604001604052808281526020013373ffffffffffffffffffffffffffffffffffffffff1681525060015f8481526020019081526020015f205f820151815f01556020820151816001015f6101000a81548173ffffffffffffffffffffffffffffffffffffffff021916908373ffffffffffffffffffffffffffffffffffffffff160217905550905050817f50955776c5778c3b7d968d86d8c51fb6b29a7a74c20866b533268e209fc083433383604051610650929190610dff565b60405180910390a25050565b5f60015f8381526020019081526020015f206040518060400160405290815f8201548152602001600182015f9054906101000a900473ffffffffffffffffffffffffffffffffffffffff1673ffffffffffffffffffffffffffffffffffffffff1673ffffffffffffffffffffffffffffffffffffffff168152505090505f815f01511161071e576040517f08c379a000000000000000000000000000000000000000000000000000000000815260040161071590610e70565b60405180910390fd5b805f01513414610763576040517f08c379a000000000000000000000000000000000000000000000000000000000815260040161075a90610ed8565b60405180910390fd5b5f5f9054906101000a900473ffffffffffffffffffffffffffffffffffffffff1673ffffffffffffffffffffffffffffffffffffffff1663d9548e53836040518263ffffffff1660e01b81526004016107bc9190610bd2565b602060405180830381865afa1580156107d7573d5f5f3e3d5ffd5b505050506040513d601f19601f820116820180604052508101906107fb9190610d6c565b1561083b576040517f08c379a000000000000000000000000000000000000000000000000000000000815260040161083290610f40565b60405180910390fd5b806020015173ffffffffffffffffffffffffffffffffffffffff166108fc3490811502906040515f60405180830381858888f19350505050158015610882573d5f5f3e3d5ffd5b505f5f9054906101000a900473ffffffffffffffffffffffffffffffffffffffff1673ffffffffffffffffffffffffffffffffffffffff166323b872dd826020015133856040518463ffffffff1660e01b81526004016108e493929190610f5e565b5f604051808303815f87803b1580156108fb575f5ffd5b505af115801561090d573d5f5f3e3d5ffd5b5050505060015f8381526020019081526020015f205f5f82015f9055600182015f6101000a81549073ffffffffffffffffffffffffffffffffffffffff02191690555050817f66f5cd880edf48cdde6c966e5da0784fcc4c5e85572b8b3b62c4357798d447d733835f0151604051610986929190610dff565b60405180910390a25050565b6001602052805f5260405f205f91509050805f015490806001015f9054906101000a900473ffffffffffffffffffffffffffffffffffffffff16905082565b5f5ffd5b5f819050919050565b6109e7816109d5565b81146109f1575f5ffd5b50565b5f81359050610a02816109de565b92915050565b5f60208284031215610a1d57610a1c6109d1565b5b5f610a2a848285016109f4565b91505092915050565b5f73ffffffffffffffffffffffffffffffffffffffff82169050919050565b5f819050919050565b5f610a75610a70610a6b84610a33565b610a52565b610a33565b9050919050565b5f610a8682610a5b565b9050919050565b5f610a9782610a7c565b9050919050565b610aa781610a8d565b82525050565b5f602082019050610ac05f830184610a9e565b92915050565b5f5f60408385031215610adc57610adb6109d1565b5b5f610ae9858286016109f4565b9250506020610afa858286016109f4565b9150509250929050565b610b0d816109d5565b82525050565b5f610b1d82610a33565b9050919050565b610b2d81610b13565b82525050565b5f604082019050610b465f830185610b04565b610b536020830184610b24565b9392505050565b5f82825260208201905092915050565b7f4e6f74207468652073656c6c65720000000000000000000000000000000000005f82015250565b5f610b9e600e83610b5a565b9150610ba982610b6a565b602082019050919050565b5f6020820190508181035f830152610bcb81610b92565b9050919050565b5f602082019050610be55f830184610b04565b92915050565b610bf481610b13565b8114610bfe575f5ffd5b50565b5f81519050610c0f81610beb565b92915050565b5f60208284031215610c2a57610c296109d1565b5b5f610c3784828501610c01565b91505092915050565b7f4e6f7420746865206f776e6572000000000000000000000000000000000000005f82015250565b5f610c74600d83610b5a565b9150610c7f82610c40565b602082019050919050565b5f6020820190508181035f830152610ca181610c68565b9050919050565b7f5072696365206d75737420626520706f736974697665000000000000000000005f82015250565b5f610cdc601683610b5a565b9150610ce782610ca8565b602082019050919050565b5f6020820190508181035f830152610d0981610cd0565b9050919050565b5f604082019050610d235f830185610b24565b610d306020830184610b24565b9392505050565b5f8115159050919050565b610d4b81610d37565b8114610d55575f5ffd5b50565b5f81519050610d6681610d42565b92915050565b5f60208284031215610d8157610d806109d1565b5b5f610d8e84828501610d58565b91505092915050565b7f4d61726b6574706c616365206e6f7420617070726f76656400000000000000005f82015250565b5f610dcb601883610b5a565b9150610dd682610d97565b602082019050919050565b5f6020820190508181035f830152610df881610dbf565b9050919050565b5f604082019050610e125f830185610b24565b610e1f6020830184610b04565b9392505050565b7f4e6f74206c697374656420666f722073616c65000000000000000000000000005f82015250565b5f610e5a601383610b5a565b9150610e6582610e26565b602082019050919050565b5f6020820190508181035f830152610e8781610e4e565b9050919050565b7f496e636f72726563742070726963652073656e740000000000000000000000005f82015250565b5f610ec2601483610b5a565b9150610ecd82610e8e565b602082019050919050565b5f6020820190508181035f830152610eef81610eb6565b9050919050565b7f4e465420697320657870697265640000000000000000000000000000000000005f82015250565b5f610f2a600e83610b5a565b9150610f3582610ef6565b602082019050919050565b5f6020820190508181035f830152610f5781610f1e565b9050919050565b5f606082019050610f715f830186610b24565b610f7e6020830185610b24565b610f8b6040830184610b04565b94935050505056fea2646970667358221220d49a82fe2eac308aca61a009538bf30a330b257ae1ac0962f6f0ca6c3ceaec3c64736f6c634300081e0033","linkReferences":{}},"methodIdentifiers":{"buy(uint256)":"d96a094a","cancelListing(uint256)":"305a67a8","list(uint256,uint256)":"50fd7367","listings(uint256)":"de74e57b","nft()":"47ccca02"},"id":36}